 00:00:00.000000 56:34:12:00:54:09 > ff:ff:ff:ff:ff:ff, ethertype ARP (0x0806), length 42: Ethernet (len 6), IPv4 (len 4), Request who-has 10.0.1.8 (ff:ff:ff:ff:ff:ff) tell 10.0.1.9, length 28
	0x0000:  ffff ffff ffff 5634 1200 5409 0806 0001  ......V4..T.....
	0x0010:  0800 0604 0001 5634 1200 5409 0a00 0109  ......V4..T.....
	0x0020:  ffff ffff ffff 0a00 0108                 ..........
 00:00:00.000540 56:34:12:00:54:08 > 56:34:12:00:54:09, ethertype ARP (0x0806), length 42: Ethernet (len 6), IPv4 (len 4), Reply 10.0.1.8 is-at 56:34:12:00:54:08, length 28
	0x0000:  5634 1200 5409 5634 1200 5408 0806 0001  V4..T.V4..T.....
	0x0010:  0800 0604 0002 5634 1200 5408 0a00 0108  ......V4..T.....
	0x0020:  5634 1200 5409 0a00 0109                 V4..T.....
 00:00:00.001791 56:34:12:00:54:09 > 56:34:12:00:54:08, ethertype IPv4 (0x0800), length 98: (tos 0x0, ttl 64, id 0, offset 0, flags [none], proto ICMP (1), length 84)
    10.0.1.9 > 10.0.1.8: ICMP echo request, id 25654, seq 0, length 64
	0x0000:  5634 1200 5408 5634 1200 5409 0800 4500  V4..T.V4..T...E.
	0x0010:  0054 0000 0000 4001 6499 0a00 0109 0a00  .T....@.d.......
	0x0020:  0108 0800 64e9 6436 0000 d85b 5e5f 5dc3  ....d.d6...[^_].
	0x0030:  5557 0ee4 0000 ace9 fa0f cf8b 5c24 18b8  UW..........\$..
	0x0040:  1800 0000 e82e fdff ff85 c075 14ba 0100  ...........u....
	0x0050:  0000 15e5 0000 8400 4000 a0e9 fa0f 0200  ........@.......
	0x0060:  0000                                     ..
 00:00:00.003999 56:34:12:00:54:08 > ff:ff:ff:ff:ff:ff, ethertype ARP (0x0806), length 42: Ethernet (len 6), IPv4 (len 4), Request who-has 10.0.1.9 (ff:ff:ff:ff:ff:ff) tell 10.0.1.8, length 28
	0x0000:  ffff ffff ffff 5634 1200 5408 0806 0001  ......V4..T.....
	0x0010:  0800 0604 0001 5634 1200 5408 0a00 0108  ......V4..T.....
	0x0020:  ffff ffff ffff 0a00 0109                 ..........
 00:00:00.004201 56:34:12:00:54:09 > 56:34:12:00:54:08, ethertype ARP (0x0806), length 42: Ethernet (len 6), IPv4 (len 4), Reply 10.0.1.9 is-at 56:34:12:00:54:09, length 28
	0x0000:  5634 1200 5408 5634 1200 5409 0806 0001  V4..T.V4..T.....
	0x0010:  0800 0604 0002 5634 1200 5409 0a00 0109  ......V4..T.....
	0x0020:  5634 1200 5408 0a00 0108                 V4..T.....
 00:00:00.004956 56:34:12:00:54:08 > 56:34:12:00:54:09, ethertype IPv4 (0x0800), length 98: (tos 0x0, ttl 64, id 0, offset 0, flags [none], proto ICMP (1), length 84)
    10.0.1.8 > 10.0.1.9: ICMP echo reply, id 25654, seq 0, length 64
	0x0000:  5634 1200 5409 5634 1200 5408 0800 4500  V4..T.V4..T...E.
	0x0010:  0054 0000 0000 4001 6499 0a00 0108 0a00  .T....@.d.......
	0x0020:  0109 0000 6ce9 6436 0000 d85b 5e5f 5dc3  ....l.d6...[^_].
	0x0030:  5557 0ee4 0000 ace9 fa0f cf8b 5c24 18b8  UW..........\$..
	0x0040:  1800 0000 e82e fdff ff85 c075 14ba 0100  ...........u....
	0x0050:  0000 15e5 0000 8400 4000 a0e9 fa0f 0200  ........@.......
	0x0060:  0000                                     ..
 00:00:00.102869 56:34:12:00:54:09 > 56:34:12:00:54:08, ethertype IPv4 (0x0800), length 98: (tos 0x0, ttl 64, id 1, offset 0, flags [none], proto ICMP (1), length 84)
    10.0.1.9 > 10.0.1.8: ICMP echo request, id 25654, seq 1, length 64
	0x0000:  5634 1200 5408 5634 1200 5409 0800 4500  V4..T.V4..T...E.
	0x0010:  0054 0001 0000 4001 6498 0a00 0109 0a00  .T....@.d.......
	0x0020:  0108 0800 64e8 6436 0001 d85b 5e5f 5dc3  ....d.d6...[^_].
	0x0030:  5557 0ee4 0000 ace9 fa0f cf8b 5c24 18b8  UW..........\$..
	0x0040:  1800 0000 e82e fdff ff85 c075 14ba 0100  ...........u....
	0x0050:  0000 15e5 0000 8400 4000 a0e9 fa0f 0200  ........@.......
	0x0060:  0000                                     ..
 00:00:00.106709 56:34:12:00:54:08 > 56:34:12:00:54:09, ethertype IPv4 (0x0800), length 98: (tos 0x0, ttl 64, id 1, offset 0, flags [none], proto ICMP (1), length 84)
    10.0.1.8 > 10.0.1.9: ICMP echo reply, id 25654, seq 1, length 64
	0x0000:  5634 1200 5409 5634 1200 5408 0800 4500  V4..T.V4..T...E.
	0x0010:  0054 0001 0000 4001 6498 0a00 0108 0a00  .T....@.d.......
	0x0020:  0109 0000 6ce8 6436 0001 d85b 5e5f 5dc3  ....l.d6...[^_].
	0x0030:  5557 0ee4 0000 ace9 fa0f cf8b 5c24 18b8  UW..........\$..
	0x0040:  1800 0000 e82e fdff ff85 c075 14ba 0100  ...........u....
	0x0050:  0000 15e5 0000 8400 4000 a0e9 fa0f 0200  ........@.......
	0x0060:  0000                                     ..
 00:00:00.203465 56:34:12:00:54:09 > 56:34:12:00:54:08, ethertype IPv4 (0x0800), length 98: (tos 0x0, ttl 64, id 2, offset 0, flags [none], proto ICMP (1), length 84)
    10.0.1.9 > 10.0.1.8: ICMP echo request, id 25654, seq 2, length 64
	0x0000:  5634 1200 5408 5634 1200 5409 0800 4500  V4..T.V4..T...E.
	0x0010:  0054 0002 0000 4001 6497 0a00 0109 0a00  .T....@.d.......
	0x0020:  0108 0800 64e7 6436 0002 d85b 5e5f 5dc3  ....d.d6...[^_].
	0x0030:  5557 0ee4 0000 ace9 fa0f cf8b 5c24 18b8  UW..........\$..
	0x0040:  1800 0000 e82e fdff ff85 c075 14ba 0100  ...........u....
	0x0050:  0000 15e5 0000 8400 4000 a0e9 fa0f 0200  ........@.......
	0x0060:  0000                                     ..
 00:00:00.204605 56:34:12:00:54:08 > 56:34:12:00:54:09, ethertype IPv4 (0x0800), length 98: (tos 0x0, ttl 64, id 2, offset 0, flags [none], proto ICMP (1), length 84)
    10.0.1.8 > 10.0.1.9: ICMP echo reply, id 25654, seq 2, length 64
	0x0000:  5634 1200 5409 5634 1200 5408 0800 4500  V4..T.V4..T...E.
	0x0010:  0054 0002 0000 4001 6497 0a00 0108 0a00  .T....@.d.......
	0x0020:  0109 0000 6ce7 6436 0002 d85b 5e5f 5dc3  ....l.d6...[^_].
	0x0030:  5557 0ee4 0000 ace9 fa0f cf8b 5c24 18b8  UW..........\$..
	0x0040:  1800 0000 e82e fdff ff85 c075 14ba 0100  ...........u....
	0x0050:  0000 15e5 0000 8400 4000 a0e9 fa0f 0200  ........@.......
	0x0060:  0000                                     ..
 00:00:02.321556 56:34:12:00:54:09 > 56:34:12:00:54:08, ethertype IPv4 (0x0800), length 1514: (tos 0x0, ttl 64, id 3, offset 0, flags [+], proto UDP (17), length 1500)
    10.0.1.9.8000 > 10.0.1.8.8000: UDP, bad length 2000 > 1472
	0x0000:  5634 1200 5408 5634 1200 5409 0800 4500  V4..T.V4..T...E.
	0x0010:  05dc 0003 2000 4011 3efe 0a00 0109 0a00  ......@.>.......
	0x0020:  0108 1f40 1f40 07d8 7530 0a20 3030 3030  ...@.@..u0..0000
	0x0030:  3030 2030 3030 3030 3038 2030 3030 3030  00.0000008.00000
	0x0040:  3136 2030 3030 3030 3234 2030 3030 3030  16.0000024.00000
	0x0050:  3332 2030 3030 3030 3430 2030 3030 3030  32.0000040.00000
	0x0060:  3438 2030 3030 3030 3536 2030 3030 3030  48.0000056.00000
	0x0070:  3634 2030 3030 3030 3732 2030 3030 3030  64.0000072.00000
	0x0080:  3830 2030 3030 3030 3838 2030 3030 3030  80.0000088.00000
	0x0090:  3936 2030 3030 3031 3034 2030 3030 3031  96.0000104.00001
	0x00a0:  3132 2030 3030 3031 3230 2030 3030 3031  12.0000120.00001
	0x00b0:  3238 2030 3030 3031 3336 2030 3030 3031  28.0000136.00001
	0x00c0:  3434 2030 3030 3031 3532 2030 3030 3031  44.0000152.00001
	0x00d0:  3630 2030 3030 3031 3638 2030 3030 3031  60.0000168.00001
	0x00e0:  3736 2030 3030 3031 3834 2030 3030 3031  76.0000184.00001
	0x00f0:  3932 2030 3030 3032 3030 2030 3030 3032  92.0000200.00002
	0x0100:  3038 2030 3030 3032 3136 2030 3030 3032  08.0000216.00002
	0x0110:  3234 2030 3030 3032 3332 2030 3030 3032  24.0000232.00002
	0x0120:  3430 2030 3030 3032 3438 2030 3030 3032  40.0000248.00002
	0x0130:  3536 2030 3030 3032 3634 2030 3030 3032  56.0000264.00002
	0x0140:  3732 2030 3030 3032 3830 2030 3030 3032  72.0000280.00002
	0x0150:  3838 2030 3030 3032 3936 2030 3030 3033  88.0000296.00003
	0x0160:  3034 2030 3030 3033 3132 2030 3030 3033  04.0000312.00003
	0x0170:  3230 2030 3030 3033 3238 2030 3030 3033  20.0000328.00003
	0x0180:  3336 2030 3030 3033 3434 2030 3030 3033  36.0000344.00003
	0x0190:  3532 2030 3030 3033 3630 2030 3030 3033  52.0000360.00003
	0x01a0:  3638 2030 3030 3033 3736 2030 3030 3033  68.0000376.00003
	0x01b0:  3834 2030 3030 3033 3932 2030 3030 3034  84.0000392.00004
	0x01c0:  3030 2030 3030 3034 3038 2030 3030 3034  00.0000408.00004
	0x01d0:  3136 2030 3030 3034 3234 2030 3030 3034  16.0000424.00004
	0x01e0:  3332 2030 3030 3034 3430 2030 3030 3034  32.0000440.00004
	0x01f0:  3438 2030 3030 3034 3536 2030 3030 3034  48.0000456.00004
	0x0200:  3634 2030 3030 3034 3732 2030 3030 3034  64.0000472.00004
	0x0210:  3830 2030 3030 3034 3838 2030 3030 3034  80.0000488.00004
	0x0220:  3936 2030 3030 3035 3034 2030 3030 3035  96.0000504.00005
	0x0230:  3132 2030 3030 3035 3230 2030 3030 3035  12.0000520.00005
	0x0240:  3238 2030 3030 3035 3336 2030 3030 3035  28.0000536.00005
	0x0250:  3434 2030 3030 3035 3532 2030 3030 3035  44.0000552.00005
	0x0260:  3630 2030 3030 3035 3638 2030 3030 3035  60.0000568.00005
	0x0270:  3736 2030 3030 3035 3834 2030 3030 3035  76.0000584.00005
	0x0280:  3932 2030 3030 3036 3030 2030 3030 3036  92.0000600.00006
	0x0290:  3038 2030 3030 3036 3136 2030 3030 3036  08.0000616.00006
	0x02a0:  3234 2030 3030 3036 3332 2030 3030 3036  24.0000632.00006
	0x02b0:  3430 2030 3030 3036 3438 2030 3030 3036  40.0000648.00006
	0x02c0:  3536 2030 3030 3036 3634 2030 3030 3036  56.0000664.00006
	0x02d0:  3732 2030 3030 3036 3830 2030 3030 3036  72.0000680.00006
	0x02e0:  3838 2030 3030 3036 3936 2030 3030 3037  88.0000696.00007
	0x02f0:  3034 2030 3030 3037 3132 2030 3030 3037  04.0000712.00007
	0x0300:  3230 2030 3030 3037 3238 2030 3030 3037  20.0000728.00007
	0x0310:  3336 2030 3030 3037 3434 2030 3030 3037  36.0000744.00007
	0x0320:  3532 2030 3030 3037 3630 2030 3030 3037  52.0000760.00007
	0x0330:  3638 2030 3030 3037 3736 2030 3030 3037  68.0000776.00007
	0x0340:  3834 2030 3030 3037 3932 2030 3030 3038  84.0000792.00008
	0x0350:  3030 2030 3030 3038 3038 2030 3030 3038  00.0000808.00008
	0x0360:  3136 2030 3030 3038 3234 2030 3030 3038  16.0000824.00008
	0x0370:  3332 2030 3030 3038 3430 2030 3030 3038  32.0000840.00008
	0x0380:  3438 2030 3030 3038 3536 2030 3030 3038  48.0000856.00008
	0x0390:  3634 2030 3030 3038 3732 2030 3030 3038  64.0000872.00008
	0x03a0:  3830 2030 3030 3038 3838 2030 3030 3038  80.0000888.00008
	0x03b0:  3936 2030 3030 3039 3034 2030 3030 3039  96.0000904.00009
	0x03c0:  3132 2030 3030 3039 3230 2030 3030 3039  12.0000920.00009
	0x03d0:  3238 2030 3030 3039 3336 2030 3030 3039  28.0000936.00009
	0x03e0:  3434 2030 3030 3039 3532 2030 3030 3039  44.0000952.00009
	0x03f0:  3630 2030 3030 3039 3638 2030 3030 3039  60.0000968.00009
	0x0400:  3736 2030 3030 3039 3834 2030 3030 3039  76.0000984.00009
	0x0410:  3932 2030 3030 3130 3030 2030 3030 3130  92.0001000.00010
	0x0420:  3038 2030 3030 3130 3136 2030 3030 3130  08.0001016.00010
	0x0430:  3234 2030 3030 3130 3332 2030 3030 3130  24.0001032.00010
	0x0440:  3430 2030 3030 3130 3438 2030 3030 3130  40.0001048.00010
	0x0450:  3536 2030 3030 3130 3634 2030 3030 3130  56.0001064.00010
	0x0460:  3732 2030 3030 3130 3830 2030 3030 3130  72.0001080.00010
	0x0470:  3838 2030 3030 3130 3936 2030 3030 3131  88.0001096.00011
	0x0480:  3034 2030 3030 3131 3132 2030 3030 3131  04.0001112.00011
	0x0490:  3230 2030 3030 3131 3238 2030 3030 3131  20.0001128.00011
	0x04a0:  3336 2030 3030 3131 3434 2030 3030 3131  36.0001144.00011
	0x04b0:  3532 2030 3030 3131 3630 2030 3030 3131  52.0001160.00011
	0x04c0:  3638 2030 3030 3131 3736 2030 3030 3131  68.0001176.00011
	0x04d0:  3834 2030 3030 3131 3932 2030 3030 3132  84.0001192.00012
	0x04e0:  3030 2030 3030 3132 3038 2030 3030 3132  00.0001208.00012
	0x04f0:  3136 2030 3030 3132 3234 2030 3030 3132  16.0001224.00012
	0x0500:  3332 2030 3030 3132 3430 2030 3030 3132  32.0001240.00012
	0x0510:  3438 2030 3030 3132 3536 2030 3030 3132  48.0001256.00012
	0x0520:  3634 2030 3030 3132 3732 2030 3030 3132  64.0001272.00012
	0x0530:  3830 2030 3030 3132 3838 2030 3030 3132  80.0001288.00012
	0x0540:  3936 2030 3030 3133 3034 2030 3030 3133  96.0001304.00013
	0x0550:  3132 2030 3030 3133 3230 2030 3030 3133  12.0001320.00013
	0x0560:  3238 2030 3030 3133 3336 2030 3030 3133  28.0001336.00013
	0x0570:  3434 2030 3030 3133 3532 2030 3030 3133  44.0001352.00013
	0x0580:  3630 2030 3030 3133 3638 2030 3030 3133  60.0001368.00013
	0x0590:  3736 2030 3030 3133 3834 2030 3030 3133  76.0001384.00013
	0x05a0:  3932 2030 3030 3134 3030 2030 3030 3134  92.0001400.00014
	0x05b0:  3038 2030 3030 3134 3136 2030 3030 3134  08.0001416.00014
	0x05c0:  3234 2030 3030 3134 3332 2030 3030 3134  24.0001432.00014
	0x05d0:  3430 2030 3030 3134 3438 2030 3030 3134  40.0001448.00014
	0x05e0:  3536 2030 3030 3134 3634                 56.0001464
 00:00:02.321824 56:34:12:00:54:09 > 56:34:12:00:54:08, ethertype IPv4 (0x0800), length 562: (tos 0x0, ttl 64, id 3, offset 1480, flags [none], proto UDP (17), length 548)
    10.0.1.9 > 10.0.1.8: ip-proto-17
	0x0000:  5634 1200 5408 5634 1200 5409 0800 4500  V4..T.V4..T...E.
	0x0010:  0224 0003 00b9 4011 61fd 0a00 0109 0a00  .$....@.a.......
	0x0020:  0108 2030 3030 3134 3732 2030 3030 3134  ...0001472.00014
	0x0030:  3830 2030 3030 3134 3838 2030 3030 3134  80.0001488.00014
	0x0040:  3936 2030 3030 3135 3034 2030 3030 3135  96.0001504.00015
	0x0050:  3132 2030 3030 3135 3230 2030 3030 3135  12.0001520.00015
	0x0060:  3238 2030 3030 3135 3336 2030 3030 3135  28.0001536.00015
	0x0070:  3434 2030 3030 3135 3532 2030 3030 3135  44.0001552.00015
	0x0080:  3630 2030 3030 3135 3638 2030 3030 3135  60.0001568.00015
	0x0090:  3736 2030 3030 3135 3834 2030 3030 3135  76.0001584.00015
	0x00a0:  3932 2030 3030 3136 3030 2030 3030 3136  92.0001600.00016
	0x00b0:  3038 2030 3030 3136 3136 2030 3030 3136  08.0001616.00016
	0x00c0:  3234 2030 3030 3136 3332 2030 3030 3136  24.0001632.00016
	0x00d0:  3430 2030 3030 3136 3438 2030 3030 3136  40.0001648.00016
	0x00e0:  3536 2030 3030 3136 3634 2030 3030 3136  56.0001664.00016
	0x00f0:  3732 2030 3030 3136 3830 2030 3030 3136  72.0001680.00016
	0x0100:  3838 2030 3030 3136 3936 2030 3030 3137  88.0001696.00017
	0x0110:  3034 2030 3030 3137 3132 2030 3030 3137  04.0001712.00017
	0x0120:  3230 2030 3030 3137 3238 2030 3030 3137  20.0001728.00017
	0x0130:  3336 2030 3030 3137 3434 2030 3030 3137  36.0001744.00017
	0x0140:  3532 2030 3030 3137 3630 2030 3030 3137  52.0001760.00017
	0x0150:  3638 2030 3030 3137 3736 2030 3030 3137  68.0001776.00017
	0x0160:  3834 2030 3030 3137 3932 2030 3030 3138  84.0001792.00018
	0x0170:  3030 2030 3030 3138 3038 2030 3030 3138  00.0001808.00018
	0x0180:  3136 2030 3030 3138 3234 2030 3030 3138  16.0001824.00018
	0x0190:  3332 2030 3030 3138 3430 2030 3030 3138  32.0001840.00018
	0x01a0:  3438 2030 3030 3138 3536 2030 3030 3138  48.0001856.00018
	0x01b0:  3634 2030 3030 3138 3732 2030 3030 3138  64.0001872.00018
	0x01c0:  3830 2030 3030 3138 3838 2030 3030 3138  80.0001888.00018
	0x01d0:  3936 2030 3030 3139 3034 2030 3030 3139  96.0001904.00019
	0x01e0:  3132 2030 3030 3139 3230 2030 3030 3139  12.0001920.00019
	0x01f0:  3238 2030 3030 3139 3336 2030 3030 3139  28.0001936.00019
	0x0200:  3434 2030 3030 3139 3532 2030 3030 3139  44.0001952.00019
	0x0210:  3630 2030 3030 3139 3638 2030 3030 3139  60.0001968.00019
	0x0220:  3736 2030 3030 3139 3834 2030 3030 3030  76.0001984.00000
	0x0230:  0a00                                     ..
 00:00:02.337880 56:34:12:00:54:09 > 56:34:12:00:54:08, ethertype IPv4 (0x0800), length 1514: (tos 0x0, ttl 64, id 4, offset 0, flags [+], proto UDP (17), length 1500)
    10.0.1.9.8000 > 10.0.1.8.8000: UDP, bad length 2000 > 1472
	0x0000:  5634 1200 5408 5634 1200 5409 0800 4500  V4..T.V4..T...E.
	0x0010:  05dc 0004 2000 4011 3efd 0a00 0109 0a00  ......@.>.......
	0x0020:  0108 1f40 1f40 07d8 6f32 0a20 3131 3131  ...@.@..o2..1111
	0x0030:  3131 2031 3030 3030 3038 2031 3030 3030  11.1000008.10000
	0x0040:  3136 2031 3030 3030 3234 2031 3030 3030  16.1000024.10000
	0x0050:  3332 2031 3030 3030 3430 2031 3030 3030  32.1000040.10000
	0x0060:  3438 2031 3030 3030 3536 2031 3030 3030  48.1000056.10000
	0x0070:  3634 2031 3030 3030 3732 2031 3030 3030  64.1000072.10000
	0x0080:  3830 2031 3030 3030 3838 2031 3030 3030  80.1000088.10000
	0x0090:  3936 2031 3030 3031 3034 2031 3030 3031  96.1000104.10001
	0x00a0:  3132 2031 3030 3031 3230 2031 3030 3031  12.1000120.10001
	0x00b0:  3238 2031 3030 3031 3336 2031 3030 3031  28.1000136.10001
	0x00c0:  3434 2031 3030 3031 3532 2031 3030 3031  44.1000152.10001
	0x00d0:  3630 2031 3030 3031 3638 2031 3030 3031  60.1000168.10001
	0x00e0:  3736 2031 3030 3031 3834 2031 3030 3031  76.1000184.10001
	0x00f0:  3932 2031 3030 3032 3030 2031 3030 3032  92.1000200.10002
	0x0100:  3038 2031 3030 3032 3136 2031 3030 3032  08.1000216.10002
	0x0110:  3234 2031 3030 3032 3332 2031 3030 3032  24.1000232.10002
	0x0120:  3430 2031 3030 3032 3438 2031 3030 3032  40.1000248.10002
	0x0130:  3536 2031 3030 3032 3634 2031 3030 3032  56.1000264.10002
	0x0140:  3732 2031 3030 3032 3830 2031 3030 3032  72.1000280.10002
	0x0150:  3838 2031 3030 3032 3936 2031 3030 3033  88.1000296.10003
	0x0160:  3034 2031 3030 3033 3132 2031 3030 3033  04.1000312.10003
	0x0170:  3230 2031 3030 3033 3238 2031 3030 3033  20.1000328.10003
	0x0180:  3336 2031 3030 3033 3434 2031 3030 3033  36.1000344.10003
	0x0190:  3532 2031 3030 3033 3630 2031 3030 3033  52.1000360.10003
	0x01a0:  3638 2031 3030 3033 3736 2031 3030 3033  68.1000376.10003
	0x01b0:  3834 2031 3030 3033 3932 2031 3030 3034  84.1000392.10004
	0x01c0:  3030 2031 3030 3034 3038 2031 3030 3034  00.1000408.10004
	0x01d0:  3136 2031 3030 3034 3234 2031 3030 3034  16.1000424.10004
	0x01e0:  3332 2031 3030 3034 3430 2031 3030 3034  32.1000440.10004
	0x01f0:  3438 2031 3030 3034 3536 2031 3030 3034  48.1000456.10004
	0x0200:  3634 2031 3030 3034 3732 2031 3030 3034  64.1000472.10004
	0x0210:  3830 2031 3030 3034 3838 2031 3030 3034  80.1000488.10004
	0x0220:  3936 2031 3030 3035 3034 2031 3030 3035  96.1000504.10005
	0x0230:  3132 2031 3030 3035 3230 2031 3030 3035  12.1000520.10005
	0x0240:  3238 2031 3030 3035 3336 2031 3030 3035  28.1000536.10005
	0x0250:  3434 2031 3030 3035 3532 2031 3030 3035  44.1000552.10005
	0x0260:  3630 2031 3030 3035 3638 2031 3030 3035  60.1000568.10005
	0x0270:  3736 2031 3030 3035 3834 2031 3030 3035  76.1000584.10005
	0x0280:  3932 2031 3030 3036 3030 2031 3030 3036  92.1000600.10006
	0x0290:  3038 2031 3030 3036 3136 2031 3030 3036  08.1000616.10006
	0x02a0:  3234 2031 3030 3036 3332 2031 3030 3036  24.1000632.10006
	0x02b0:  3430 2031 3030 3036 3438 2031 3030 3036  40.1000648.10006
	0x02c0:  3536 2031 3030 3036 3634 2031 3030 3036  56.1000664.10006
	0x02d0:  3732 2031 3030 3036 3830 2031 3030 3036  72.1000680.10006
	0x02e0:  3838 2031 3030 3036 3936 2031 3030 3037  88.1000696.10007
	0x02f0:  3034 2031 3030 3037 3132 2031 3030 3037  04.1000712.10007
	0x0300:  3230 2031 3030 3037 3238 2031 3030 3037  20.1000728.10007
	0x0310:  3336 2031 3030 3037 3434 2031 3030 3037  36.1000744.10007
	0x0320:  3532 2031 3030 3037 3630 2031 3030 3037  52.1000760.10007
	0x0330:  3638 2031 3030 3037 3736 2031 3030 3037  68.1000776.10007
	0x0340:  3834 2031 3030 3037 3932 2031 3030 3038  84.1000792.10008
	0x0350:  3030 2031 3030 3038 3038 2031 3030 3038  00.1000808.10008
	0x0360:  3136 2031 3030 3038 3234 2031 3030 3038  16.1000824.10008
	0x0370:  3332 2031 3030 3038 3430 2031 3030 3038  32.1000840.10008
	0x0380:  3438 2031 3030 3038 3536 2031 3030 3038  48.1000856.10008
	0x0390:  3634 2031 3030 3038 3732 2031 3030 3038  64.1000872.10008
	0x03a0:  3830 2031 3030 3038 3838 2031 3030 3038  80.1000888.10008
	0x03b0:  3936 2031 3030 3039 3034 2031 3030 3039  96.1000904.10009
	0x03c0:  3132 2031 3030 3039 3230 2031 3030 3039  12.1000920.10009
	0x03d0:  3238 2031 3030 3039 3336 2031 3030 3039  28.1000936.10009
	0x03e0:  3434 2031 3030 3039 3532 2031 3030 3039  44.1000952.10009
	0x03f0:  3630 2031 3030 3039 3638 2031 3030 3039  60.1000968.10009
	0x0400:  3736 2031 3030 3039 3834 2031 3030 3039  76.1000984.10009
	0x0410:  3932 2031 3030 3130 3030 2031 3030 3130  92.1001000.10010
	0x0420:  3038 2031 3030 3130 3136 2031 3030 3130  08.1001016.10010
	0x0430:  3234 2031 3030 3130 3332 2031 3030 3130  24.1001032.10010
	0x0440:  3430 2031 3030 3130 3438 2031 3030 3130  40.1001048.10010
	0x0450:  3536 2031 3030 3130 3634 2031 3030 3130  56.1001064.10010
	0x0460:  3732 2031 3030 3130 3830 2031 3030 3130  72.1001080.10010
	0x0470:  3838 2031 3030 3130 3936 2031 3030 3131  88.1001096.10011
	0x0480:  3034 2031 3030 3131 3132 2031 3030 3131  04.1001112.10011
	0x0490:  3230 2031 3030 3131 3238 2031 3030 3131  20.1001128.10011
	0x04a0:  3336 2031 3030 3131 3434 2031 3030 3131  36.1001144.10011
	0x04b0:  3532 2031 3030 3131 3630 2031 3030 3131  52.1001160.10011
	0x04c0:  3638 2031 3030 3131 3736 2031 3030 3131  68.1001176.10011
	0x04d0:  3834 2031 3030 3131 3932 2031 3030 3132  84.1001192.10012
	0x04e0:  3030 2031 3030 3132 3038 2031 3030 3132  00.1001208.10012
	0x04f0:  3136 2031 3030 3132 3234 2031 3030 3132  16.1001224.10012
	0x0500:  3332 2031 3030 3132 3430 2031 3030 3132  32.1001240.10012
	0x0510:  3438 2031 3030 3132 3536 2031 3030 3132  48.1001256.10012
	0x0520:  3634 2031 3030 3132 3732 2031 3030 3132  64.1001272.10012
	0x0530:  3830 2031 3030 3132 3838 2031 3030 3132  80.1001288.10012
	0x0540:  3936 2031 3030 3133 3034 2031 3030 3133  96.1001304.10013
	0x0550:  3132 2031 3030 3133 3230 2031 3030 3133  12.1001320.10013
	0x0560:  3238 2031 3030 3133 3336 2031 3030 3133  28.1001336.10013
	0x0570:  3434 2031 3030 3133 3532 2031 3030 3133  44.1001352.10013
	0x0580:  3630 2031 3030 3133 3638 2031 3030 3133  60.1001368.10013
	0x0590:  3736 2031 3030 3133 3834 2031 3030 3133  76.1001384.10013
	0x05a0:  3932 2031 3030 3134 3030 2031 3030 3134  92.1001400.10014
	0x05b0:  3038 2031 3030 3134 3136 2031 3030 3134  08.1001416.10014
	0x05c0:  3234 2031 3030 3134 3332 2031 3030 3134  24.1001432.10014
	0x05d0:  3430 2031 3030 3134 3438 2031 3030 3134  40.1001448.10014
	0x05e0:  3536 2031 3030 3134 3634                 56.1001464
 00:00:02.338091 56:34:12:00:54:09 > 56:34:12:00:54:08, ethertype IPv4 (0x0800), length 562: (tos 0x0, ttl 64, id 4, offset 1480, flags [none], proto UDP (17), length 548)
    10.0.1.9 > 10.0.1.8: ip-proto-17
	0x0000:  5634 1200 5408 5634 1200 5409 0800 4500  V4..T.V4..T...E.
	0x0010:  0224 0004 00b9 4011 61fc 0a00 0109 0a00  .$....@.a.......
	0x0020:  0108 2031 3030 3134 3732 2031 3030 3134  ...1001472.10014
	0x0030:  3830 2031 3030 3134 3838 2031 3030 3134  80.1001488.10014
	0x0040:  3936 2031 3030 3135 3034 2031 3030 3135  96.1001504.10015
	0x0050:  3132 2031 3030 3135 3230 2031 3030 3135  12.1001520.10015
	0x0060:  3238 2031 3030 3135 3336 2031 3030 3135  28.1001536.10015
	0x0070:  3434 2031 3030 3135 3532 2031 3030 3135  44.1001552.10015
	0x0080:  3630 2031 3030 3135 3638 2031 3030 3135  60.1001568.10015
	0x0090:  3736 2031 3030 3135 3834 2031 3030 3135  76.1001584.10015
	0x00a0:  3932 2031 3030 3136 3030 2031 3030 3136  92.1001600.10016
	0x00b0:  3038 2031 3030 3136 3136 2031 3030 3136  08.1001616.10016
	0x00c0:  3234 2031 3030 3136 3332 2031 3030 3136  24.1001632.10016
	0x00d0:  3430 2031 3030 3136 3438 2031 3030 3136  40.1001648.10016
	0x00e0:  3536 2031 3030 3136 3634 2031 3030 3136  56.1001664.10016
	0x00f0:  3732 2031 3030 3136 3830 2031 3030 3136  72.1001680.10016
	0x0100:  3838 2031 3030 3136 3936 2031 3030 3137  88.1001696.10017
	0x0110:  3034 2031 3030 3137 3132 2031 3030 3137  04.1001712.10017
	0x0120:  3230 2031 3030 3137 3238 2031 3030 3137  20.1001728.10017
	0x0130:  3336 2031 3030 3137 3434 2031 3030 3137  36.1001744.10017
	0x0140:  3532 2031 3030 3137 3630 2031 3030 3137  52.1001760.10017
	0x0150:  3638 2031 3030 3137 3736 2031 3030 3137  68.1001776.10017
	0x0160:  3834 2031 3030 3137 3932 2031 3030 3138  84.1001792.10018
	0x0170:  3030 2031 3030 3138 3038 2031 3030 3138  00.1001808.10018
	0x0180:  3136 2031 3030 3138 3234 2031 3030 3138  16.1001824.10018
	0x0190:  3332 2031 3030 3138 3430 2031 3030 3138  32.1001840.10018
	0x01a0:  3438 2031 3030 3138 3536 2031 3030 3138  48.1001856.10018
	0x01b0:  3634 2031 3030 3138 3732 2031 3030 3138  64.1001872.10018
	0x01c0:  3830 2031 3030 3138 3838 2031 3030 3138  80.1001888.10018
	0x01d0:  3936 2031 3030 3139 3034 2031 3030 3139  96.1001904.10019
	0x01e0:  3132 2031 3030 3139 3230 2031 3030 3139  12.1001920.10019
	0x01f0:  3238 2031 3030 3139 3336 2031 3030 3139  28.1001936.10019
	0x0200:  3434 2031 3030 3139 3532 2031 3030 3139  44.1001952.10019
	0x0210:  3630 2031 3030 3139 3638 2031 3030 3139  60.1001968.10019
	0x0220:  3736 2031 3030 3139 3834 2031 3131 3131  76.1001984.11111
	0x0230:  0a00                                     ..
 00:00:02.345959 56:34:12:00:54:09 > 56:34:12:00:54:08, ethertype IPv4 (0x0800), length 1514: (tos 0x0, ttl 64, id 5, offset 0, flags [+], proto UDP (17), length 1500)
    10.0.1.9.8000 > 10.0.1.8.8000: UDP, bad length 2000 > 1472
	0x0000:  5634 1200 5408 5634 1200 5409 0800 4500  V4..T.V4..T...E.
	0x0010:  05dc 0005 2000 4011 3efc 0a00 0109 0a00  ......@.>.......
	0x0020:  0108 1f40 1f40 07d8 6934 0a20 3232 3232  ...@.@..i4..2222
	0x0030:  3232 2032 3030 3030 3038 2032 3030 3030  22.2000008.20000
	0x0040:  3136 2032 3030 3030 3234 2032 3030 3030  16.2000024.20000
	0x0050:  3332 2032 3030 3030 3430 2032 3030 3030  32.2000040.20000
	0x0060:  3438 2032 3030 3030 3536 2032 3030 3030  48.2000056.20000
	0x0070:  3634 2032 3030 3030 3732 2032 3030 3030  64.2000072.20000
	0x0080:  3830 2032 3030 3030 3838 2032 3030 3030  80.2000088.20000
	0x0090:  3936 2032 3030 3031 3034 2032 3030 3031  96.2000104.20001
	0x00a0:  3132 2032 3030 3031 3230 2032 3030 3031  12.2000120.20001
	0x00b0:  3238 2032 3030 3031 3336 2032 3030 3031  28.2000136.20001
	0x00c0:  3434 2032 3030 3031 3532 2032 3030 3031  44.2000152.20001
	0x00d0:  3630 2032 3030 3031 3638 2032 3030 3031  60.2000168.20001
	0x00e0:  3736 2032 3030 3031 3834 2032 3030 3031  76.2000184.20001
	0x00f0:  3932 2032 3030 3032 3030 2032 3030 3032  92.2000200.20002
	0x0100:  3038 2032 3030 3032 3136 2032 3030 3032  08.2000216.20002
	0x0110:  3234 2032 3030 3032 3332 2032 3030 3032  24.2000232.20002
	0x0120:  3430 2032 3030 3032 3438 2032 3030 3032  40.2000248.20002
	0x0130:  3536 2032 3030 3032 3634 2032 3030 3032  56.2000264.20002
	0x0140:  3732 2032 3030 3032 3830 2032 3030 3032  72.2000280.20002
	0x0150:  3838 2032 3030 3032 3936 2032 3030 3033  88.2000296.20003
	0x0160:  3034 2032 3030 3033 3132 2032 3030 3033  04.2000312.20003
	0x0170:  3230 2032 3030 3033 3238 2032 3030 3033  20.2000328.20003
	0x0180:  3336 2032 3030 3033 3434 2032 3030 3033  36.2000344.20003
	0x0190:  3532 2032 3030 3033 3630 2032 3030 3033  52.2000360.20003
	0x01a0:  3638 2032 3030 3033 3736 2032 3030 3033  68.2000376.20003
	0x01b0:  3834 2032 3030 3033 3932 2032 3030 3034  84.2000392.20004
	0x01c0:  3030 2032 3030 3034 3038 2032 3030 3034  00.2000408.20004
	0x01d0:  3136 2032 3030 3034 3234 2032 3030 3034  16.2000424.20004
	0x01e0:  3332 2032 3030 3034 3430 2032 3030 3034  32.2000440.20004
	0x01f0:  3438 2032 3030 3034 3536 2032 3030 3034  48.2000456.20004
	0x0200:  3634 2032 3030 3034 3732 2032 3030 3034  64.2000472.20004
	0x0210:  3830 2032 3030 3034 3838 2032 3030 3034  80.2000488.20004
	0x0220:  3936 2032 3030 3035 3034 2032 3030 3035  96.2000504.20005
	0x0230:  3132 2032 3030 3035 3230 2032 3030 3035  12.2000520.20005
	0x0240:  3238 2032 3030 3035 3336 2032 3030 3035  28.2000536.20005
	0x0250:  3434 2032 3030 3035 3532 2032 3030 3035  44.2000552.20005
	0x0260:  3630 2032 3030 3035 3638 2032 3030 3035  60.2000568.20005
	0x0270:  3736 2032 3030 3035 3834 2032 3030 3035  76.2000584.20005
	0x0280:  3932 2032 3030 3036 3030 2032 3030 3036  92.2000600.20006
	0x0290:  3038 2032 3030 3036 3136 2032 3030 3036  08.2000616.20006
	0x02a0:  3234 2032 3030 3036 3332 2032 3030 3036  24.2000632.20006
	0x02b0:  3430 2032 3030 3036 3438 2032 3030 3036  40.2000648.20006
	0x02c0:  3536 2032 3030 3036 3634 2032 3030 3036  56.2000664.20006
	0x02d0:  3732 2032 3030 3036 3830 2032 3030 3036  72.2000680.20006
	0x02e0:  3838 2032 3030 3036 3936 2032 3030 3037  88.2000696.20007
	0x02f0:  3034 2032 3030 3037 3132 2032 3030 3037  04.2000712.20007
	0x0300:  3230 2032 3030 3037 3238 2032 3030 3037  20.2000728.20007
	0x0310:  3336 2032 3030 3037 3434 2032 3030 3037  36.2000744.20007
	0x0320:  3532 2032 3030 3037 3630 2032 3030 3037  52.2000760.20007
	0x0330:  3638 2032 3030 3037 3736 2032 3030 3037  68.2000776.20007
	0x0340:  3834 2032 3030 3037 3932 2032 3030 3038  84.2000792.20008
	0x0350:  3030 2032 3030 3038 3038 2032 3030 3038  00.2000808.20008
	0x0360:  3136 2032 3030 3038 3234 2032 3030 3038  16.2000824.20008
	0x0370:  3332 2032 3030 3038 3430 2032 3030 3038  32.2000840.20008
	0x0380:  3438 2032 3030 3038 3536 2032 3030 3038  48.2000856.20008
	0x0390:  3634 2032 3030 3038 3732 2032 3030 3038  64.2000872.20008
	0x03a0:  3830 2032 3030 3038 3838 2032 3030 3038  80.2000888.20008
	0x03b0:  3936 2032 3030 3039 3034 2032 3030 3039  96.2000904.20009
	0x03c0:  3132 2032 3030 3039 3230 2032 3030 3039  12.2000920.20009
	0x03d0:  3238 2032 3030 3039 3336 2032 3030 3039  28.2000936.20009
	0x03e0:  3434 2032 3030 3039 3532 2032 3030 3039  44.2000952.20009
	0x03f0:  3630 2032 3030 3039 3638 2032 3030 3039  60.2000968.20009
	0x0400:  3736 2032 3030 3039 3834 2032 3030 3039  76.2000984.20009
	0x0410:  3932 2032 3030 3130 3030 2032 3030 3130  92.2001000.20010
	0x0420:  3038 2032 3030 3130 3136 2032 3030 3130  08.2001016.20010
	0x0430:  3234 2032 3030 3130 3332 2032 3030 3130  24.2001032.20010
	0x0440:  3430 2032 3030 3130 3438 2032 3030 3130  40.2001048.20010
	0x0450:  3536 2032 3030 3130 3634 2032 3030 3130  56.2001064.20010
	0x0460:  3732 2032 3030 3130 3830 2032 3030 3130  72.2001080.20010
	0x0470:  3838 2032 3030 3130 3936 2032 3030 3131  88.2001096.20011
	0x0480:  3034 2032 3030 3131 3132 2032 3030 3131  04.2001112.20011
	0x0490:  3230 2032 3030 3131 3238 2032 3030 3131  20.2001128.20011
	0x04a0:  3336 2032 3030 3131 3434 2032 3030 3131  36.2001144.20011
	0x04b0:  3532 2032 3030 3131 3630 2032 3030 3131  52.2001160.20011
	0x04c0:  3638 2032 3030 3131 3736 2032 3030 3131  68.2001176.20011
	0x04d0:  3834 2032 3030 3131 3932 2032 3030 3132  84.2001192.20012
	0x04e0:  3030 2032 3030 3132 3038 2032 3030 3132  00.2001208.20012
	0x04f0:  3136 2032 3030 3132 3234 2032 3030 3132  16.2001224.20012
	0x0500:  3332 2032 3030 3132 3430 2032 3030 3132  32.2001240.20012
	0x0510:  3438 2032 3030 3132 3536 2032 3030 3132  48.2001256.20012
	0x0520:  3634 2032 3030 3132 3732 2032 3030 3132  64.2001272.20012
	0x0530:  3830 2032 3030 3132 3838 2032 3030 3132  80.2001288.20012
	0x0540:  3936 2032 3030 3133 3034 2032 3030 3133  96.2001304.20013
	0x0550:  3132 2032 3030 3133 3230 2032 3030 3133  12.2001320.20013
	0x0560:  3238 2032 3030 3133 3336 2032 3030 3133  28.2001336.20013
	0x0570:  3434 2032 3030 3133 3532 2032 3030 3133  44.2001352.20013
	0x0580:  3630 2032 3030 3133 3638 2032 3030 3133  60.2001368.20013
	0x0590:  3736 2032 3030 3133 3834 2032 3030 3133  76.2001384.20013
	0x05a0:  3932 2032 3030 3134 3030 2032 3030 3134  92.2001400.20014
	0x05b0:  3038 2032 3030 3134 3136 2032 3030 3134  08.2001416.20014
	0x05c0:  3234 2032 3030 3134 3332 2032 3030 3134  24.2001432.20014
	0x05d0:  3430 2032 3030 3134 3438 2032 3030 3134  40.2001448.20014
	0x05e0:  3536 2032 3030 3134 3634                 56.2001464
 00:00:02.346067 56:34:12:00:54:09 > 56:34:12:00:54:08, ethertype IPv4 (0x0800), length 562: (tos 0x0, ttl 64, id 5, offset 1480, flags [none], proto UDP (17), length 548)
    10.0.1.9 > 10.0.1.8: ip-proto-17
	0x0000:  5634 1200 5408 5634 1200 5409 0800 4500  V4..T.V4..T...E.
	0x0010:  0224 0005 00b9 4011 61fb 0a00 0109 0a00  .$....@.a.......
	0x0020:  0108 2032 3030 3134 3732 2032 3030 3134  ...2001472.20014
	0x0030:  3830 2032 3030 3134 3838 2032 3030 3134  80.2001488.20014
	0x0040:  3936 2032 3030 3135 3034 2032 3030 3135  96.2001504.20015
	0x0050:  3132 2032 3030 3135 3230 2032 3030 3135  12.2001520.20015
	0x0060:  3238 2032 3030 3135 3336 2032 3030 3135  28.2001536.20015
	0x0070:  3434 2032 3030 3135 3532 2032 3030 3135  44.2001552.20015
	0x0080:  3630 2032 3030 3135 3638 2032 3030 3135  60.2001568.20015
	0x0090:  3736 2032 3030 3135 3834 2032 3030 3135  76.2001584.20015
	0x00a0:  3932 2032 3030 3136 3030 2032 3030 3136  92.2001600.20016
	0x00b0:  3038 2032 3030 3136 3136 2032 3030 3136  08.2001616.20016
	0x00c0:  3234 2032 3030 3136 3332 2032 3030 3136  24.2001632.20016
	0x00d0:  3430 2032 3030 3136 3438 2032 3030 3136  40.2001648.20016
	0x00e0:  3536 2032 3030 3136 3634 2032 3030 3136  56.2001664.20016
	0x00f0:  3732 2032 3030 3136 3830 2032 3030 3136  72.2001680.20016
	0x0100:  3838 2032 3030 3136 3936 2032 3030 3137  88.2001696.20017
	0x0110:  3034 2032 3030 3137 3132 2032 3030 3137  04.2001712.20017
	0x0120:  3230 2032 3030 3137 3238 2032 3030 3137  20.2001728.20017
	0x0130:  3336 2032 3030 3137 3434 2032 3030 3137  36.2001744.20017
	0x0140:  3532 2032 3030 3137 3630 2032 3030 3137  52.2001760.20017
	0x0150:  3638 2032 3030 3137 3736 2032 3030 3137  68.2001776.20017
	0x0160:  3834 2032 3030 3137 3932 2032 3030 3138  84.2001792.20018
	0x0170:  3030 2032 3030 3138 3038 2032 3030 3138  00.2001808.20018
	0x0180:  3136 2032 3030 3138 3234 2032 3030 3138  16.2001824.20018
	0x0190:  3332 2032 3030 3138 3430 2032 3030 3138  32.2001840.20018
	0x01a0:  3438 2032 3030 3138 3536 2032 3030 3138  48.2001856.20018
	0x01b0:  3634 2032 3030 3138 3732 2032 3030 3138  64.2001872.20018
	0x01c0:  3830 2032 3030 3138 3838 2032 3030 3138  80.2001888.20018
	0x01d0:  3936 2032 3030 3139 3034 2032 3030 3139  96.2001904.20019
	0x01e0:  3132 2032 3030 3139 3230 2032 3030 3139  12.2001920.20019
	0x01f0:  3238 2032 3030 3139 3336 2032 3030 3139  28.2001936.20019
	0x0200:  3434 2032 3030 3139 3532 2032 3030 3139  44.2001952.20019
	0x0210:  3630 2032 3030 3139 3638 2032 3030 3139  60.2001968.20019
	0x0220:  3736 2032 3030 3139 3834 2032 3232 3232  76.2001984.22222
	0x0230:  0a00                                     ..
 00:00:04.357357 56:34:12:00:54:09 > 56:34:12:00:54:08, ethertype IPv4 (0x0800), length 54: (tos 0x0, ttl 64, id 6, offset 0, flags [none], proto TCP (6), length 40)
    10.0.1.9.8000 > 10.0.1.8.8000: Flags [S], cksum 0xf7e2 (correct), seq 3690295, win 4096, length 0
	0x0000:  5634 1200 5408 5634 1200 5409 0800 4500  V4..T.V4..T...E.
	0x0010:  0028 0006 0000 4006 64ba 0a00 0109 0a00  .(....@.d.......
	0x0020:  0108 1f40 1f40 0038 4f37 0000 0000 5402  ...@.@.8O7....T.
	0x0030:  1000 f7e2 0000                           ......
 00:00:14.365332 56:34:12:00:54:09 > 56:34:12:00:54:08, ethertype IPv4 (0x0800), length 54: (tos 0x0, ttl 64, id 7, offset 0, flags [none], proto TCP (6), length 40)
    10.0.1.9.8000 > 10.0.1.8.8000: Flags [S], cksum 0xf7e2 (correct), seq 3690295, win 4096, length 0
	0x0000:  5634 1200 5408 5634 1200 5409 0800 4500  V4..T.V4..T...E.
	0x0010:  0028 0007 0000 4006 64b9 0a00 0109 0a00  .(....@.d.......
	0x0020:  0108 1f40 1f40 0038 4f37 0000 0000 5402  ...@.@.8O7....T.
	0x0030:  1000 f7e2 0000                           ......
 00:00:14.369434 56:34:12:00:54:08 > 56:34:12:00:54:09, ethertype IPv4 (0x0800), length 54: (tos 0x0, ttl 64, id 3, offset 0, flags [none], proto TCP (6), length 40)
    10.0.1.8.8000 > 10.0.1.9.8000: Flags [S.], cksum 0xd4e2 (correct), seq 12198453, ack 3690296, win 4096, length 0
	0x0000:  5634 1200 5409 5634 1200 5408 0800 4500  V4..T.V4..T...E.
	0x0010:  0028 0003 0000 4006 64bd 0a00 0108 0a00  .(....@.d.......
	0x0020:  0109 1f40 1f40 00ba 2235 0038 4f38 5412  ...@.@.."5.8O8T.
	0x0030:  1000 d4e2 0000                           ......
 00:00:14.371570 56:34:12:00:54:09 > 56:34:12:00:54:08, ethertype IPv4 (0x0800), length 54: (tos 0x0, ttl 64, id 8, offset 0, flags [none], proto TCP (6), length 40)
    10.0.1.9.8000 > 10.0.1.8.8000: Flags [.], cksum 0xd4e3 (correct), seq 1, ack 1, win 4096, length 0
	0x0000:  5634 1200 5408 5634 1200 5409 0800 4500  V4..T.V4..T...E.
	0x0010:  0028 0008 0000 4006 64b8 0a00 0109 0a00  .(....@.d.......
	0x0020:  0108 1f40 1f40 0038 4f38 00ba 2236 5410  ...@.@.8O8.."6T.
	0x0030:  1000 d4e3 0000                           ......
 00:00:14.378082 56:34:12:00:54:09 > 56:34:12:00:54:08, ethertype IPv4 (0x0800), length 1514: (tos 0x0, ttl 64, id 9, offset 0, flags [none], proto TCP (6), length 1500)
    10.0.1.9.8000 > 10.0.1.8.8000: Flags [.], cksum 0x9d70 (correct), seq 1:1461, ack 1, win 4096, length 1460
	0x0000:  5634 1200 5408 5634 1200 5409 0800 4500  V4..T.V4..T...E.
	0x0010:  05dc 0009 0000 4006 5f03 0a00 0109 0a00  ......@._.......
	0x0020:  0108 1f40 1f40 0038 4f38 00ba 2236 5410  ...@.@.8O8.."6T.
	0x0030:  1000 9d70 0000 0a20 3030 3030 3030 2030  ...p....000000.0
	0x0040:  3030 3030 3038 2030 3030 3030 3136 2030  000008.0000016.0
	0x0050:  3030 3030 3234 2030 3030 3030 3332 2030  000024.0000032.0
	0x0060:  3030 3030 3430 2030 3030 3030 3438 2030  000040.0000048.0
	0x0070:  3030 3030 3536 2030 3030 3030 3634 2030  000056.0000064.0
	0x0080:  3030 3030 3732 2030 3030 3030 3830 2030  000072.0000080.0
	0x0090:  3030 3030 3838 2030 3030 3030 3936 2030  000088.0000096.0
	0x00a0:  3030 3031 3034 2030 3030 3031 3132 2030  000104.0000112.0
	0x00b0:  3030 3031 3230 2030 3030 3031 3238 2030  000120.0000128.0
	0x00c0:  3030 3031 3336 2030 3030 3031 3434 2030  000136.0000144.0
	0x00d0:  3030 3031 3532 2030 3030 3031 3630 2030  000152.0000160.0
	0x00e0:  3030 3031 3638 2030 3030 3031 3736 2030  000168.0000176.0
	0x00f0:  3030 3031 3834 2030 3030 3031 3932 2030  000184.0000192.0
	0x0100:  3030 3032 3030 2030 3030 3032 3038 2030  000200.0000208.0
	0x0110:  3030 3032 3136 2030 3030 3032 3234 2030  000216.0000224.0
	0x0120:  3030 3032 3332 2030 3030 3032 3430 2030  000232.0000240.0
	0x0130:  3030 3032 3438 2030 3030 3032 3536 2030  000248.0000256.0
	0x0140:  3030 3032 3634 2030 3030 3032 3732 2030  000264.0000272.0
	0x0150:  3030 3032 3830 2030 3030 3032 3838 2030  000280.0000288.0
	0x0160:  3030 3032 3936 2030 3030 3033 3034 2030  000296.0000304.0
	0x0170:  3030 3033 3132 2030 3030 3033 3230 2030  000312.0000320.0
	0x0180:  3030 3033 3238 2030 3030 3033 3336 2030  000328.0000336.0
	0x0190:  3030 3033 3434 2030 3030 3033 3532 2030  000344.0000352.0
	0x01a0:  3030 3033 3630 2030 3030 3033 3638 2030  000360.0000368.0
	0x01b0:  3030 3033 3736 2030 3030 3033 3834 2030  000376.0000384.0
	0x01c0:  3030 3033 3932 2030 3030 3034 3030 2030  000392.0000400.0
	0x01d0:  3030 3034 3038 2030 3030 3034 3136 2030  000408.0000416.0
	0x01e0:  3030 3034 3234 2030 3030 3034 3332 2030  000424.0000432.0
	0x01f0:  3030 3034 3430 2030 3030 3034 3438 2030  000440.0000448.0
	0x0200:  3030 3034 3536 2030 3030 3034 3634 2030  000456.0000464.0
	0x0210:  3030 3034 3732 2030 3030 3034 3830 2030  000472.0000480.0
	0x0220:  3030 3034 3838 2030 3030 3034 3936 2030  000488.0000496.0
	0x0230:  3030 3035 3034 2030 3030 3035 3132 2030  000504.0000512.0
	0x0240:  3030 3035 3230 2030 3030 3035 3238 2030  000520.0000528.0
	0x0250:  3030 3035 3336 2030 3030 3035 3434 2030  000536.0000544.0
	0x0260:  3030 3035 3532 2030 3030 3035 3630 2030  000552.0000560.0
	0x0270:  3030 3035 3638 2030 3030 3035 3736 2030  000568.0000576.0
	0x0280:  3030 3035 3834 2030 3030 3035 3932 2030  000584.0000592.0
	0x0290:  3030 3036 3030 2030 3030 3036 3038 2030  000600.0000608.0
	0x02a0:  3030 3036 3136 2030 3030 3036 3234 2030  000616.0000624.0
	0x02b0:  3030 3036 3332 2030 3030 3036 3430 2030  000632.0000640.0
	0x02c0:  3030 3036 3438 2030 3030 3036 3536 2030  000648.0000656.0
	0x02d0:  3030 3036 3634 2030 3030 3036 3732 2030  000664.0000672.0
	0x02e0:  3030 3036 3830 2030 3030 3036 3838 2030  000680.0000688.0
	0x02f0:  3030 3036 3936 2030 3030 3037 3034 2030  000696.0000704.0
	0x0300:  3030 3037 3132 2030 3030 3037 3230 2030  000712.0000720.0
	0x0310:  3030 3037 3238 2030 3030 3037 3336 2030  000728.0000736.0
	0x0320:  3030 3037 3434 2030 3030 3037 3532 2030  000744.0000752.0
	0x0330:  3030 3037 3630 2030 3030 3037 3638 2030  000760.0000768.0
	0x0340:  3030 3037 3736 2030 3030 3037 3834 2030  000776.0000784.0
	0x0350:  3030 3037 3932 2030 3030 3038 3030 2030  000792.0000800.0
	0x0360:  3030 3038 3038 2030 3030 3038 3136 2030  000808.0000816.0
	0x0370:  3030 3038 3234 2030 3030 3038 3332 2030  000824.0000832.0
	0x0380:  3030 3038 3430 2030 3030 3038 3438 2030  000840.0000848.0
	0x0390:  3030 3038 3536 2030 3030 3038 3634 2030  000856.0000864.0
	0x03a0:  3030 3038 3732 2030 3030 3038 3830 2030  000872.0000880.0
	0x03b0:  3030 3038 3838 2030 3030 3038 3936 2030  000888.0000896.0
	0x03c0:  3030 3039 3034 2030 3030 3039 3132 2030  000904.0000912.0
	0x03d0:  3030 3039 3230 2030 3030 3039 3238 2030  000920.0000928.0
	0x03e0:  3030 3039 3336 2030 3030 3039 3434 2030  000936.0000944.0
	0x03f0:  3030 3039 3532 2030 3030 3039 3630 2030  000952.0000960.0
	0x0400:  3030 3039 3638 2030 3030 3039 3736 2030  000968.0000976.0
	0x0410:  3030 3039 3834 2030 3030 3039 3932 2030  000984.0000992.0
	0x0420:  3030 3130 3030 2030 3030 3130 3038 2030  001000.0001008.0
	0x0430:  3030 3130 3136 2030 3030 3130 3234 2030  001016.0001024.0
	0x0440:  3030 3130 3332 2030 3030 3130 3430 2030  001032.0001040.0
	0x0450:  3030 3130 3438 2030 3030 3130 3536 2030  001048.0001056.0
	0x0460:  3030 3130 3634 2030 3030 3130 3732 2030  001064.0001072.0
	0x0470:  3030 3130 3830 2030 3030 3130 3838 2030  001080.0001088.0
	0x0480:  3030 3130 3936 2030 3030 3131 3034 2030  001096.0001104.0
	0x0490:  3030 3131 3132 2030 3030 3131 3230 2030  001112.0001120.0
	0x04a0:  3030 3131 3238 2030 3030 3131 3336 2030  001128.0001136.0
	0x04b0:  3030 3131 3434 2030 3030 3131 3532 2030  001144.0001152.0
	0x04c0:  3030 3131 3630 2030 3030 3131 3638 2030  001160.0001168.0
	0x04d0:  3030 3131 3736 2030 3030 3131 3834 2030  001176.0001184.0
	0x04e0:  3030 3131 3932 2030 3030 3132 3030 2030  001192.0001200.0
	0x04f0:  3030 3132 3038 2030 3030 3132 3136 2030  001208.0001216.0
	0x0500:  3030 3132 3234 2030 3030 3132 3332 2030  001224.0001232.0
	0x0510:  3030 3132 3430 2030 3030 3132 3438 2030  001240.0001248.0
	0x0520:  3030 3132 3536 2030 3030 3132 3634 2030  001256.0001264.0
	0x0530:  3030 3132 3732 2030 3030 3132 3830 2030  001272.0001280.0
	0x0540:  3030 3132 3838 2030 3030 3132 3936 2030  001288.0001296.0
	0x0550:  3030 3133 3034 2030 3030 3133 3132 2030  001304.0001312.0
	0x0560:  3030 3133 3230 2030 3030 3133 3238 2030  001320.0001328.0
	0x0570:  3030 3133 3336 2030 3030 3133 3434 2030  001336.0001344.0
	0x0580:  3030 3133 3532 2030 3030 3133 3630 2030  001352.0001360.0
	0x0590:  3030 3133 3638 2030 3030 3133 3736 2030  001368.0001376.0
	0x05a0:  3030 3133 3834 2030 3030 3133 3932 2030  001384.0001392.0
	0x05b0:  3030 3134 3030 2030 3030 3134 3038 2030  001400.0001408.0
	0x05c0:  3030 3134 3136 2030 3030 3134 3234 2030  001416.0001424.0
	0x05d0:  3030 3134 3332 2030 3030 3134 3430 2030  001432.0001440.0
	0x05e0:  3030 3134 3438 2030 3030                 001448.000
 00:00:14.378987 56:34:12:00:54:09 > 56:34:12:00:54:08, ethertype IPv4 (0x0800), length 594: (tos 0x0, ttl 64, id 10, offset 0, flags [none], proto TCP (6), length 580)
    10.0.1.9.8000 > 10.0.1.8.8000: Flags [.], cksum 0xd7a4 (correct), seq 1461:2001, ack 1, win 4096, length 540
	0x0000:  5634 1200 5408 5634 1200 5409 0800 4500  V4..T.V4..T...E.
	0x0010:  0244 000a 0000 4006 629a 0a00 0109 0a00  .D....@.b.......
	0x0020:  0108 1f40 1f40 0038 54ec 00ba 2236 5410  ...@.@.8T..."6T.
	0x0030:  1000 d7a4 0000 3134 3536 2030 3030 3134  ......1456.00014
	0x0040:  3634 2030 3030 3134 3732 2030 3030 3134  64.0001472.00014
	0x0050:  3830 2030 3030 3134 3838 2030 3030 3134  80.0001488.00014
	0x0060:  3936 2030 3030 3135 3034 2030 3030 3135  96.0001504.00015
	0x0070:  3132 2030 3030 3135 3230 2030 3030 3135  12.0001520.00015
	0x0080:  3238 2030 3030 3135 3336 2030 3030 3135  28.0001536.00015
	0x0090:  3434 2030 3030 3135 3532 2030 3030 3135  44.0001552.00015
	0x00a0:  3630 2030 3030 3135 3638 2030 3030 3135  60.0001568.00015
	0x00b0:  3736 2030 3030 3135 3834 2030 3030 3135  76.0001584.00015
	0x00c0:  3932 2030 3030 3136 3030 2030 3030 3136  92.0001600.00016
	0x00d0:  3038 2030 3030 3136 3136 2030 3030 3136  08.0001616.00016
	0x00e0:  3234 2030 3030 3136 3332 2030 3030 3136  24.0001632.00016
	0x00f0:  3430 2030 3030 3136 3438 2030 3030 3136  40.0001648.00016
	0x0100:  3536 2030 3030 3136 3634 2030 3030 3136  56.0001664.00016
	0x0110:  3732 2030 3030 3136 3830 2030 3030 3136  72.0001680.00016
	0x0120:  3838 2030 3030 3136 3936 2030 3030 3137  88.0001696.00017
	0x0130:  3034 2030 3030 3137 3132 2030 3030 3137  04.0001712.00017
	0x0140:  3230 2030 3030 3137 3238 2030 3030 3137  20.0001728.00017
	0x0150:  3336 2030 3030 3137 3434 2030 3030 3137  36.0001744.00017
	0x0160:  3532 2030 3030 3137 3630 2030 3030 3137  52.0001760.00017
	0x0170:  3638 2030 3030 3137 3736 2030 3030 3137  68.0001776.00017
	0x0180:  3834 2030 3030 3137 3932 2030 3030 3138  84.0001792.00018
	0x0190:  3030 2030 3030 3138 3038 2030 3030 3138  00.0001808.00018
	0x01a0:  3136 2030 3030 3138 3234 2030 3030 3138  16.0001824.00018
	0x01b0:  3332 2030 3030 3138 3430 2030 3030 3138  32.0001840.00018
	0x01c0:  3438 2030 3030 3138 3536 2030 3030 3138  48.0001856.00018
	0x01d0:  3634 2030 3030 3138 3732 2030 3030 3138  64.0001872.00018
	0x01e0:  3830 2030 3030 3138 3838 2030 3030 3138  80.0001888.00018
	0x01f0:  3936 2030 3030 3139 3034 2030 3030 3139  96.0001904.00019
	0x0200:  3132 2030 3030 3139 3230 2030 3030 3139  12.0001920.00019
	0x0210:  3238 2030 3030 3139 3336 2030 3030 3139  28.0001936.00019
	0x0220:  3434 2030 3030 3139 3532 2030 3030 3139  44.0001952.00019
	0x0230:  3630 2030 3030 3139 3638 2030 3030 3139  60.0001968.00019
	0x0240:  3736 2030 3030 3139 3834 2030 3030 3030  76.0001984.00000
	0x0250:  0a00                                     ..
 00:00:14.380131 56:34:12:00:54:08 > 56:34:12:00:54:09, ethertype IPv4 (0x0800), length 54: (tos 0x0, ttl 64, id 4, offset 0, flags [none], proto TCP (6), length 40)
    10.0.1.8.8000 > 10.0.1.9.8000: Flags [.], cksum 0xcf2f (correct), seq 1, ack 1461, win 4096, length 0
	0x0000:  5634 1200 5409 5634 1200 5408 0800 4500  V4..T.V4..T...E.
	0x0010:  0028 0004 0000 4006 64bc 0a00 0108 0a00  .(....@.d.......
	0x0020:  0109 1f40 1f40 00ba 2236 0038 54ec 5410  ...@.@.."6.8T.T.
	0x0030:  1000 cf2f 0000                           .../..
 00:00:14.380907 56:34:12:00:54:08 > 56:34:12:00:54:09, ethertype IPv4 (0x0800), length 54: (tos 0x0, ttl 64, id 5, offset 0, flags [none], proto TCP (6), length 40)
    10.0.1.8.8000 > 10.0.1.9.8000: Flags [.], cksum 0xcd13 (correct), seq 1, ack 2001, win 4096, length 0
	0x0000:  5634 1200 5409 5634 1200 5408 0800 4500  V4..T.V4..T...E.
	0x0010:  0028 0005 0000 4006 64bb 0a00 0108 0a00  .(....@.d.......
	0x0020:  0109 1f40 1f40 00ba 2236 0038 5708 5410  ...@.@.."6.8W.T.
	0x0030:  1000 cd13 0000                           ......
 00:00:14.394988 56:34:12:00:54:09 > 56:34:12:00:54:08, ethertype IPv4 (0x0800), length 1514: (tos 0x0, ttl 64, id 11, offset 0, flags [none], proto TCP (6), length 1500)
    10.0.1.9.8000 > 10.0.1.8.8000: Flags [.], cksum 0x91e7 (correct), seq 2001:3461, ack 1, win 4096, length 1460
	0x0000:  5634 1200 5408 5634 1200 5409 0800 4500  V4..T.V4..T...E.
	0x0010:  05dc 000b 0000 4006 5f01 0a00 0109 0a00  ......@._.......
	0x0020:  0108 1f40 1f40 0038 5708 00ba 2236 5410  ...@.@.8W..."6T.
	0x0030:  1000 91e7 0000 0a20 3131 3131 3131 2031  ........111111.1
	0x0040:  3030 3030 3038 2031 3030 3030 3136 2031  000008.1000016.1
	0x0050:  3030 3030 3234 2031 3030 3030 3332 2031  000024.1000032.1
	0x0060:  3030 3030 3430 2031 3030 3030 3438 2031  000040.1000048.1
	0x0070:  3030 3030 3536 2031 3030 3030 3634 2031  000056.1000064.1
	0x0080:  3030 3030 3732 2031 3030 3030 3830 2031  000072.1000080.1
	0x0090:  3030 3030 3838 2031 3030 3030 3936 2031  000088.1000096.1
	0x00a0:  3030 3031 3034 2031 3030 3031 3132 2031  000104.1000112.1
	0x00b0:  3030 3031 3230 2031 3030 3031 3238 2031  000120.1000128.1
	0x00c0:  3030 3031 3336 2031 3030 3031 3434 2031  000136.1000144.1
	0x00d0:  3030 3031 3532 2031 3030 3031 3630 2031  000152.1000160.1
	0x00e0:  3030 3031 3638 2031 3030 3031 3736 2031  000168.1000176.1
	0x00f0:  3030 3031 3834 2031 3030 3031 3932 2031  000184.1000192.1
	0x0100:  3030 3032 3030 2031 3030 3032 3038 2031  000200.1000208.1
	0x0110:  3030 3032 3136 2031 3030 3032 3234 2031  000216.1000224.1
	0x0120:  3030 3032 3332 2031 3030 3032 3430 2031  000232.1000240.1
	0x0130:  3030 3032 3438 2031 3030 3032 3536 2031  000248.1000256.1
	0x0140:  3030 3032 3634 2031 3030 3032 3732 2031  000264.1000272.1
	0x0150:  3030 3032 3830 2031 3030 3032 3838 2031  000280.1000288.1
	0x0160:  3030 3032 3936 2031 3030 3033 3034 2031  000296.1000304.1
	0x0170:  3030 3033 3132 2031 3030 3033 3230 2031  000312.1000320.1
	0x0180:  3030 3033 3238 2031 3030 3033 3336 2031  000328.1000336.1
	0x0190:  3030 3033 3434 2031 3030 3033 3532 2031  000344.1000352.1
	0x01a0:  3030 3033 3630 2031 3030 3033 3638 2031  000360.1000368.1
	0x01b0:  3030 3033 3736 2031 3030 3033 3834 2031  000376.1000384.1
	0x01c0:  3030 3033 3932 2031 3030 3034 3030 2031  000392.1000400.1
	0x01d0:  3030 3034 3038 2031 3030 3034 3136 2031  000408.1000416.1
	0x01e0:  3030 3034 3234 2031 3030 3034 3332 2031  000424.1000432.1
	0x01f0:  3030 3034 3430 2031 3030 3034 3438 2031  000440.1000448.1
	0x0200:  3030 3034 3536 2031 3030 3034 3634 2031  000456.1000464.1
	0x0210:  3030 3034 3732 2031 3030 3034 3830 2031  000472.1000480.1
	0x0220:  3030 3034 3838 2031 3030 3034 3936 2031  000488.1000496.1
	0x0230:  3030 3035 3034 2031 3030 3035 3132 2031  000504.1000512.1
	0x0240:  3030 3035 3230 2031 3030 3035 3238 2031  000520.1000528.1
	0x0250:  3030 3035 3336 2031 3030 3035 3434 2031  000536.1000544.1
	0x0260:  3030 3035 3532 2031 3030 3035 3630 2031  000552.1000560.1
	0x0270:  3030 3035 3638 2031 3030 3035 3736 2031  000568.1000576.1
	0x0280:  3030 3035 3834 2031 3030 3035 3932 2031  000584.1000592.1
	0x0290:  3030 3036 3030 2031 3030 3036 3038 2031  000600.1000608.1
	0x02a0:  3030 3036 3136 2031 3030 3036 3234 2031  000616.1000624.1
	0x02b0:  3030 3036 3332 2031 3030 3036 3430 2031  000632.1000640.1
	0x02c0:  3030 3036 3438 2031 3030 3036 3536 2031  000648.1000656.1
	0x02d0:  3030 3036 3634 2031 3030 3036 3732 2031  000664.1000672.1
	0x02e0:  3030 3036 3830 2031 3030 3036 3838 2031  000680.1000688.1
	0x02f0:  3030 3036 3936 2031 3030 3037 3034 2031  000696.1000704.1
	0x0300:  3030 3037 3132 2031 3030 3037 3230 2031  000712.1000720.1
	0x0310:  3030 3037 3238 2031 3030 3037 3336 2031  000728.1000736.1
	0x0320:  3030 3037 3434 2031 3030 3037 3532 2031  000744.1000752.1
	0x0330:  3030 3037 3630 2031 3030 3037 3638 2031  000760.1000768.1
	0x0340:  3030 3037 3736 2031 3030 3037 3834 2031  000776.1000784.1
	0x0350:  3030 3037 3932 2031 3030 3038 3030 2031  000792.1000800.1
	0x0360:  3030 3038 3038 2031 3030 3038 3136 2031  000808.1000816.1
	0x0370:  3030 3038 3234 2031 3030 3038 3332 2031  000824.1000832.1
	0x0380:  3030 3038 3430 2031 3030 3038 3438 2031  000840.1000848.1
	0x0390:  3030 3038 3536 2031 3030 3038 3634 2031  000856.1000864.1
	0x03a0:  3030 3038 3732 2031 3030 3038 3830 2031  000872.1000880.1
	0x03b0:  3030 3038 3838 2031 3030 3038 3936 2031  000888.1000896.1
	0x03c0:  3030 3039 3034 2031 3030 3039 3132 2031  000904.1000912.1
	0x03d0:  3030 3039 3230 2031 3030 3039 3238 2031  000920.1000928.1
	0x03e0:  3030 3039 3336 2031 3030 3039 3434 2031  000936.1000944.1
	0x03f0:  3030 3039 3532 2031 3030 3039 3630 2031  000952.1000960.1
	0x0400:  3030 3039 3638 2031 3030 3039 3736 2031  000968.1000976.1
	0x0410:  3030 3039 3834 2031 3030 3039 3932 2031  000984.1000992.1
	0x0420:  3030 3130 3030 2031 3030 3130 3038 2031  001000.1001008.1
	0x0430:  3030 3130 3136 2031 3030 3130 3234 2031  001016.1001024.1
	0x0440:  3030 3130 3332 2031 3030 3130 3430 2031  001032.1001040.1
	0x0450:  3030 3130 3438 2031 3030 3130 3536 2031  001048.1001056.1
	0x0460:  3030 3130 3634 2031 3030 3130 3732 2031  001064.1001072.1
	0x0470:  3030 3130 3830 2031 3030 3130 3838 2031  001080.1001088.1
	0x0480:  3030 3130 3936 2031 3030 3131 3034 2031  001096.1001104.1
	0x0490:  3030 3131 3132 2031 3030 3131 3230 2031  001112.1001120.1
	0x04a0:  3030 3131 3238 2031 3030 3131 3336 2031  001128.1001136.1
	0x04b0:  3030 3131 3434 2031 3030 3131 3532 2031  001144.1001152.1
	0x04c0:  3030 3131 3630 2031 3030 3131 3638 2031  001160.1001168.1
	0x04d0:  3030 3131 3736 2031 3030 3131 3834 2031  001176.1001184.1
	0x04e0:  3030 3131 3932 2031 3030 3132 3030 2031  001192.1001200.1
	0x04f0:  3030 3132 3038 2031 3030 3132 3136 2031  001208.1001216.1
	0x0500:  3030 3132 3234 2031 3030 3132 3332 2031  001224.1001232.1
	0x0510:  3030 3132 3430 2031 3030 3132 3438 2031  001240.1001248.1
	0x0520:  3030 3132 3536 2031 3030 3132 3634 2031  001256.1001264.1
	0x0530:  3030 3132 3732 2031 3030 3132 3830 2031  001272.1001280.1
	0x0540:  3030 3132 3838 2031 3030 3132 3936 2031  001288.1001296.1
	0x0550:  3030 3133 3034 2031 3030 3133 3132 2031  001304.1001312.1
	0x0560:  3030 3133 3230 2031 3030 3133 3238 2031  001320.1001328.1
	0x0570:  3030 3133 3336 2031 3030 3133 3434 2031  001336.1001344.1
	0x0580:  3030 3133 3532 2031 3030 3133 3630 2031  001352.1001360.1
	0x0590:  3030 3133 3638 2031 3030 3133 3736 2031  001368.1001376.1
	0x05a0:  3030 3133 3834 2031 3030 3133 3932 2031  001384.1001392.1
	0x05b0:  3030 3134 3030 2031 3030 3134 3038 2031  001400.1001408.1
	0x05c0:  3030 3134 3136 2031 3030 3134 3234 2031  001416.1001424.1
	0x05d0:  3030 3134 3332 2031 3030 3134 3430 2031  001432.1001440.1
	0x05e0:  3030 3134 3438 2031 3030                 001448.100
 00:00:14.395325 56:34:12:00:54:09 > 56:34:12:00:54:08, ethertype IPv4 (0x0800), length 594: (tos 0x0, ttl 64, id 12, offset 0, flags [none], proto TCP (6), length 580)
    10.0.1.9.8000 > 10.0.1.8.8000: Flags [.], cksum 0xcd8f (correct), seq 3461:4001, ack 1, win 4096, length 540
	0x0000:  5634 1200 5408 5634 1200 5409 0800 4500  V4..T.V4..T...E.
	0x0010:  0244 000c 0000 4006 6298 0a00 0109 0a00  .D....@.b.......
	0x0020:  0108 1f40 1f40 0038 5cbc 00ba 2236 5410  ...@.@.8\..."6T.
	0x0030:  1000 cd8f 0000 3134 3536 2031 3030 3134  ......1456.10014
	0x0040:  3634 2031 3030 3134 3732 2031 3030 3134  64.1001472.10014
	0x0050:  3830 2031 3030 3134 3838 2031 3030 3134  80.1001488.10014
	0x0060:  3936 2031 3030 3135 3034 2031 3030 3135  96.1001504.10015
	0x0070:  3132 2031 3030 3135 3230 2031 3030 3135  12.1001520.10015
	0x0080:  3238 2031 3030 3135 3336 2031 3030 3135  28.1001536.10015
	0x0090:  3434 2031 3030 3135 3532 2031 3030 3135  44.1001552.10015
	0x00a0:  3630 2031 3030 3135 3638 2031 3030 3135  60.1001568.10015
	0x00b0:  3736 2031 3030 3135 3834 2031 3030 3135  76.1001584.10015
	0x00c0:  3932 2031 3030 3136 3030 2031 3030 3136  92.1001600.10016
	0x00d0:  3038 2031 3030 3136 3136 2031 3030 3136  08.1001616.10016
	0x00e0:  3234 2031 3030 3136 3332 2031 3030 3136  24.1001632.10016
	0x00f0:  3430 2031 3030 3136 3438 2031 3030 3136  40.1001648.10016
	0x0100:  3536 2031 3030 3136 3634 2031 3030 3136  56.1001664.10016
	0x0110:  3732 2031 3030 3136 3830 2031 3030 3136  72.1001680.10016
	0x0120:  3838 2031 3030 3136 3936 2031 3030 3137  88.1001696.10017
	0x0130:  3034 2031 3030 3137 3132 2031 3030 3137  04.1001712.10017
	0x0140:  3230 2031 3030 3137 3238 2031 3030 3137  20.1001728.10017
	0x0150:  3336 2031 3030 3137 3434 2031 3030 3137  36.1001744.10017
	0x0160:  3532 2031 3030 3137 3630 2031 3030 3137  52.1001760.10017
	0x0170:  3638 2031 3030 3137 3736 2031 3030 3137  68.1001776.10017
	0x0180:  3834 2031 3030 3137 3932 2031 3030 3138  84.1001792.10018
	0x0190:  3030 2031 3030 3138 3038 2031 3030 3138  00.1001808.10018
	0x01a0:  3136 2031 3030 3138 3234 2031 3030 3138  16.1001824.10018
	0x01b0:  3332 2031 3030 3138 3430 2031 3030 3138  32.1001840.10018
	0x01c0:  3438 2031 3030 3138 3536 2031 3030 3138  48.1001856.10018
	0x01d0:  3634 2031 3030 3138 3732 2031 3030 3138  64.1001872.10018
	0x01e0:  3830 2031 3030 3138 3838 2031 3030 3138  80.1001888.10018
	0x01f0:  3936 2031 3030 3139 3034 2031 3030 3139  96.1001904.10019
	0x0200:  3132 2031 3030 3139 3230 2031 3030 3139  12.1001920.10019
	0x0210:  3238 2031 3030 3139 3336 2031 3030 3139  28.1001936.10019
	0x0220:  3434 2031 3030 3139 3532 2031 3030 3139  44.1001952.10019
	0x0230:  3630 2031 3030 3139 3638 2031 3030 3139  60.1001968.10019
	0x0240:  3736 2031 3030 3139 3834 2031 3131 3131  76.1001984.11111
	0x0250:  0a00                                     ..
 00:00:14.395373 56:34:12:00:54:08 > 56:34:12:00:54:09, ethertype IPv4 (0x0800), length 54: (tos 0x0, ttl 64, id 6, offset 0, flags [none], proto TCP (6), length 40)
    10.0.1.8.8000 > 10.0.1.9.8000: Flags [.], cksum 0xc75f (correct), seq 1, ack 3461, win 4096, length 0
	0x0000:  5634 1200 5409 5634 1200 5408 0800 4500  V4..T.V4..T...E.
	0x0010:  0028 0006 0000 4006 64ba 0a00 0108 0a00  .(....@.d.......
	0x0020:  0109 1f40 1f40 00ba 2236 0038 5cbc 5410  ...@.@.."6.8\.T.
	0x0030:  1000 c75f 0000                           ..._..
 00:00:14.436277 56:34:12:00:54:08 > 56:34:12:00:54:09, ethertype IPv4 (0x0800), length 54: (tos 0x0, ttl 64, id 7, offset 0, flags [none], proto TCP (6), length 40)
    10.0.1.8.8000 > 10.0.1.9.8000: Flags [.], cksum 0xc543 (correct), seq 1, ack 4001, win 4096, length 0
	0x0000:  5634 1200 5409 5634 1200 5408 0800 4500  V4..T.V4..T...E.
	0x0010:  0028 0007 0000 4006 64b9 0a00 0108 0a00  .(....@.d.......
	0x0020:  0109 1f40 1f40 00ba 2236 0038 5ed8 5410  ...@.@.."6.8^.T.
	0x0030:  1000 c543 0000                           ...C..
 00:00:14.439519 56:34:12:00:54:09 > 56:34:12:00:54:08, ethertype IPv4 (0x0800), length 1514: (tos 0x0, ttl 64, id 13, offset 0, flags [none], proto TCP (6), length 1500)
    10.0.1.9.8000 > 10.0.1.8.8000: Flags [.], cksum 0x865e (correct), seq 4001:5461, ack 1, win 4096, length 1460
	0x0000:  5634 1200 5408 5634 1200 5409 0800 4500  V4..T.V4..T...E.
	0x0010:  05dc 000d 0000 4006 5eff 0a00 0109 0a00  ......@.^.......
	0x0020:  0108 1f40 1f40 0038 5ed8 00ba 2236 5410  ...@.@.8^..."6T.
	0x0030:  1000 865e 0000 0a20 3232 3232 3232 2032  ...^....222222.2
	0x0040:  3030 3030 3038 2032 3030 3030 3136 2032  000008.2000016.2
	0x0050:  3030 3030 3234 2032 3030 3030 3332 2032  000024.2000032.2
	0x0060:  3030 3030 3430 2032 3030 3030 3438 2032  000040.2000048.2
	0x0070:  3030 3030 3536 2032 3030 3030 3634 2032  000056.2000064.2
	0x0080:  3030 3030 3732 2032 3030 3030 3830 2032  000072.2000080.2
	0x0090:  3030 3030 3838 2032 3030 3030 3936 2032  000088.2000096.2
	0x00a0:  3030 3031 3034 2032 3030 3031 3132 2032  000104.2000112.2
	0x00b0:  3030 3031 3230 2032 3030 3031 3238 2032  000120.2000128.2
	0x00c0:  3030 3031 3336 2032 3030 3031 3434 2032  000136.2000144.2
	0x00d0:  3030 3031 3532 2032 3030 3031 3630 2032  000152.2000160.2
	0x00e0:  3030 3031 3638 2032 3030 3031 3736 2032  000168.2000176.2
	0x00f0:  3030 3031 3834 2032 3030 3031 3932 2032  000184.2000192.2
	0x0100:  3030 3032 3030 2032 3030 3032 3038 2032  000200.2000208.2
	0x0110:  3030 3032 3136 2032 3030 3032 3234 2032  000216.2000224.2
	0x0120:  3030 3032 3332 2032 3030 3032 3430 2032  000232.2000240.2
	0x0130:  3030 3032 3438 2032 3030 3032 3536 2032  000248.2000256.2
	0x0140:  3030 3032 3634 2032 3030 3032 3732 2032  000264.2000272.2
	0x0150:  3030 3032 3830 2032 3030 3032 3838 2032  000280.2000288.2
	0x0160:  3030 3032 3936 2032 3030 3033 3034 2032  000296.2000304.2
	0x0170:  3030 3033 3132 2032 3030 3033 3230 2032  000312.2000320.2
	0x0180:  3030 3033 3238 2032 3030 3033 3336 2032  000328.2000336.2
	0x0190:  3030 3033 3434 2032 3030 3033 3532 2032  000344.2000352.2
	0x01a0:  3030 3033 3630 2032 3030 3033 3638 2032  000360.2000368.2
	0x01b0:  3030 3033 3736 2032 3030 3033 3834 2032  000376.2000384.2
	0x01c0:  3030 3033 3932 2032 3030 3034 3030 2032  000392.2000400.2
	0x01d0:  3030 3034 3038 2032 3030 3034 3136 2032  000408.2000416.2
	0x01e0:  3030 3034 3234 2032 3030 3034 3332 2032  000424.2000432.2
	0x01f0:  3030 3034 3430 2032 3030 3034 3438 2032  000440.2000448.2
	0x0200:  3030 3034 3536 2032 3030 3034 3634 2032  000456.2000464.2
	0x0210:  3030 3034 3732 2032 3030 3034 3830 2032  000472.2000480.2
	0x0220:  3030 3034 3838 2032 3030 3034 3936 2032  000488.2000496.2
	0x0230:  3030 3035 3034 2032 3030 3035 3132 2032  000504.2000512.2
	0x0240:  3030 3035 3230 2032 3030 3035 3238 2032  000520.2000528.2
	0x0250:  3030 3035 3336 2032 3030 3035 3434 2032  000536.2000544.2
	0x0260:  3030 3035 3532 2032 3030 3035 3630 2032  000552.2000560.2
	0x0270:  3030 3035 3638 2032 3030 3035 3736 2032  000568.2000576.2
	0x0280:  3030 3035 3834 2032 3030 3035 3932 2032  000584.2000592.2
	0x0290:  3030 3036 3030 2032 3030 3036 3038 2032  000600.2000608.2
	0x02a0:  3030 3036 3136 2032 3030 3036 3234 2032  000616.2000624.2
	0x02b0:  3030 3036 3332 2032 3030 3036 3430 2032  000632.2000640.2
	0x02c0:  3030 3036 3438 2032 3030 3036 3536 2032  000648.2000656.2
	0x02d0:  3030 3036 3634 2032 3030 3036 3732 2032  000664.2000672.2
	0x02e0:  3030 3036 3830 2032 3030 3036 3838 2032  000680.2000688.2
	0x02f0:  3030 3036 3936 2032 3030 3037 3034 2032  000696.2000704.2
	0x0300:  3030 3037 3132 2032 3030 3037 3230 2032  000712.2000720.2
	0x0310:  3030 3037 3238 2032 3030 3037 3336 2032  000728.2000736.2
	0x0320:  3030 3037 3434 2032 3030 3037 3532 2032  000744.2000752.2
	0x0330:  3030 3037 3630 2032 3030 3037 3638 2032  000760.2000768.2
	0x0340:  3030 3037 3736 2032 3030 3037 3834 2032  000776.2000784.2
	0x0350:  3030 3037 3932 2032 3030 3038 3030 2032  000792.2000800.2
	0x0360:  3030 3038 3038 2032 3030 3038 3136 2032  000808.2000816.2
	0x0370:  3030 3038 3234 2032 3030 3038 3332 2032  000824.2000832.2
	0x0380:  3030 3038 3430 2032 3030 3038 3438 2032  000840.2000848.2
	0x0390:  3030 3038 3536 2032 3030 3038 3634 2032  000856.2000864.2
	0x03a0:  3030 3038 3732 2032 3030 3038 3830 2032  000872.2000880.2
	0x03b0:  3030 3038 3838 2032 3030 3038 3936 2032  000888.2000896.2
	0x03c0:  3030 3039 3034 2032 3030 3039 3132 2032  000904.2000912.2
	0x03d0:  3030 3039 3230 2032 3030 3039 3238 2032  000920.2000928.2
	0x03e0:  3030 3039 3336 2032 3030 3039 3434 2032  000936.2000944.2
	0x03f0:  3030 3039 3532 2032 3030 3039 3630 2032  000952.2000960.2
	0x0400:  3030 3039 3638 2032 3030 3039 3736 2032  000968.2000976.2
	0x0410:  3030 3039 3834 2032 3030 3039 3932 2032  000984.2000992.2
	0x0420:  3030 3130 3030 2032 3030 3130 3038 2032  001000.2001008.2
	0x0430:  3030 3130 3136 2032 3030 3130 3234 2032  001016.2001024.2
	0x0440:  3030 3130 3332 2032 3030 3130 3430 2032  001032.2001040.2
	0x0450:  3030 3130 3438 2032 3030 3130 3536 2032  001048.2001056.2
	0x0460:  3030 3130 3634 2032 3030 3130 3732 2032  001064.2001072.2
	0x0470:  3030 3130 3830 2032 3030 3130 3838 2032  001080.2001088.2
	0x0480:  3030 3130 3936 2032 3030 3131 3034 2032  001096.2001104.2
	0x0490:  3030 3131 3132 2032 3030 3131 3230 2032  001112.2001120.2
	0x04a0:  3030 3131 3238 2032 3030 3131 3336 2032  001128.2001136.2
	0x04b0:  3030 3131 3434 2032 3030 3131 3532 2032  001144.2001152.2
	0x04c0:  3030 3131 3630 2032 3030 3131 3638 2032  001160.2001168.2
	0x04d0:  3030 3131 3736 2032 3030 3131 3834 2032  001176.2001184.2
	0x04e0:  3030 3131 3932 2032 3030 3132 3030 2032  001192.2001200.2
	0x04f0:  3030 3132 3038 2032 3030 3132 3136 2032  001208.2001216.2
	0x0500:  3030 3132 3234 2032 3030 3132 3332 2032  001224.2001232.2
	0x0510:  3030 3132 3430 2032 3030 3132 3438 2032  001240.2001248.2
	0x0520:  3030 3132 3536 2032 3030 3132 3634 2032  001256.2001264.2
	0x0530:  3030 3132 3732 2032 3030 3132 3830 2032  001272.2001280.2
	0x0540:  3030 3132 3838 2032 3030 3132 3936 2032  001288.2001296.2
	0x0550:  3030 3133 3034 2032 3030 3133 3132 2032  001304.2001312.2
	0x0560:  3030 3133 3230 2032 3030 3133 3238 2032  001320.2001328.2
	0x0570:  3030 3133 3336 2032 3030 3133 3434 2032  001336.2001344.2
	0x0580:  3030 3133 3532 2032 3030 3133 3630 2032  001352.2001360.2
	0x0590:  3030 3133 3638 2032 3030 3133 3736 2032  001368.2001376.2
	0x05a0:  3030 3133 3834 2032 3030 3133 3932 2032  001384.2001392.2
	0x05b0:  3030 3134 3030 2032 3030 3134 3038 2032  001400.2001408.2
	0x05c0:  3030 3134 3136 2032 3030 3134 3234 2032  001416.2001424.2
	0x05d0:  3030 3134 3332 2032 3030 3134 3430 2032  001432.2001440.2
	0x05e0:  3030 3134 3438 2032 3030                 001448.200
 00:00:14.439618 56:34:12:00:54:09 > 56:34:12:00:54:08, ethertype IPv4 (0x0800), length 594: (tos 0x0, ttl 64, id 14, offset 0, flags [none], proto TCP (6), length 580)
    10.0.1.9.8000 > 10.0.1.8.8000: Flags [.], cksum 0xc37a (correct), seq 5461:6001, ack 1, win 4096, length 540
	0x0000:  5634 1200 5408 5634 1200 5409 0800 4500  V4..T.V4..T...E.
	0x0010:  0244 000e 0000 4006 6296 0a00 0109 0a00  .D....@.b.......
	0x0020:  0108 1f40 1f40 0038 648c 00ba 2236 5410  ...@.@.8d..."6T.
	0x0030:  1000 c37a 0000 3134 3536 2032 3030 3134  ...z..1456.20014
	0x0040:  3634 2032 3030 3134 3732 2032 3030 3134  64.2001472.20014
	0x0050:  3830 2032 3030 3134 3838 2032 3030 3134  80.2001488.20014
	0x0060:  3936 2032 3030 3135 3034 2032 3030 3135  96.2001504.20015
	0x0070:  3132 2032 3030 3135 3230 2032 3030 3135  12.2001520.20015
	0x0080:  3238 2032 3030 3135 3336 2032 3030 3135  28.2001536.20015
	0x0090:  3434 2032 3030 3135 3532 2032 3030 3135  44.2001552.20015
	0x00a0:  3630 2032 3030 3135 3638 2032 3030 3135  60.2001568.20015
	0x00b0:  3736 2032 3030 3135 3834 2032 3030 3135  76.2001584.20015
	0x00c0:  3932 2032 3030 3136 3030 2032 3030 3136  92.2001600.20016
	0x00d0:  3038 2032 3030 3136 3136 2032 3030 3136  08.2001616.20016
	0x00e0:  3234 2032 3030 3136 3332 2032 3030 3136  24.2001632.20016
	0x00f0:  3430 2032 3030 3136 3438 2032 3030 3136  40.2001648.20016
	0x0100:  3536 2032 3030 3136 3634 2032 3030 3136  56.2001664.20016
	0x0110:  3732 2032 3030 3136 3830 2032 3030 3136  72.2001680.20016
	0x0120:  3838 2032 3030 3136 3936 2032 3030 3137  88.2001696.20017
	0x0130:  3034 2032 3030 3137 3132 2032 3030 3137  04.2001712.20017
	0x0140:  3230 2032 3030 3137 3238 2032 3030 3137  20.2001728.20017
	0x0150:  3336 2032 3030 3137 3434 2032 3030 3137  36.2001744.20017
	0x0160:  3532 2032 3030 3137 3630 2032 3030 3137  52.2001760.20017
	0x0170:  3638 2032 3030 3137 3736 2032 3030 3137  68.2001776.20017
	0x0180:  3834 2032 3030 3137 3932 2032 3030 3138  84.2001792.20018
	0x0190:  3030 2032 3030 3138 3038 2032 3030 3138  00.2001808.20018
	0x01a0:  3136 2032 3030 3138 3234 2032 3030 3138  16.2001824.20018
	0x01b0:  3332 2032 3030 3138 3430 2032 3030 3138  32.2001840.20018
	0x01c0:  3438 2032 3030 3138 3536 2032 3030 3138  48.2001856.20018
	0x01d0:  3634 2032 3030 3138 3732 2032 3030 3138  64.2001872.20018
	0x01e0:  3830 2032 3030 3138 3838 2032 3030 3138  80.2001888.20018
	0x01f0:  3936 2032 3030 3139 3034 2032 3030 3139  96.2001904.20019
	0x0200:  3132 2032 3030 3139 3230 2032 3030 3139  12.2001920.20019
	0x0210:  3238 2032 3030 3139 3336 2032 3030 3139  28.2001936.20019
	0x0220:  3434 2032 3030 3139 3532 2032 3030 3139  44.2001952.20019
	0x0230:  3630 2032 3030 3139 3638 2032 3030 3139  60.2001968.20019
	0x0240:  3736 2032 3030 3139 3834 2032 3232 3232  76.2001984.22222
	0x0250:  0a00                                     ..
 00:00:14.439683 56:34:12:00:54:08 > 56:34:12:00:54:09, ethertype IPv4 (0x0800), length 54: (tos 0x0, ttl 64, id 8, offset 0, flags [none], proto TCP (6), length 40)
    10.0.1.8.8000 > 10.0.1.9.8000: Flags [.], cksum 0xbf8f (correct), seq 1, ack 5461, win 4096, length 0
	0x0000:  5634 1200 5409 5634 1200 5408 0800 4500  V4..T.V4..T...E.
	0x0010:  0028 0008 0000 4006 64b8 0a00 0108 0a00  .(....@.d.......
	0x0020:  0109 1f40 1f40 00ba 2236 0038 648c 5410  ...@.@.."6.8d.T.
	0x0030:  1000 bf8f 0000                           ......
 00:00:14.439723 56:34:12:00:54:08 > 56:34:12:00:54:09, ethertype IPv4 (0x0800), length 54: (tos 0x0, ttl 64, id 9, offset 0, flags [none], proto TCP (6), length 40)
    10.0.1.8.8000 > 10.0.1.9.8000: Flags [.], cksum 0xbd73 (correct), seq 1, ack 6001, win 4096, length 0
	0x0000:  5634 1200 5409 5634 1200 5408 0800 4500  V4..T.V4..T...E.
	0x0010:  0028 0009 0000 4006 64b7 0a00 0108 0a00  .(....@.d.......
	0x0020:  0109 1f40 1f40 00ba 2236 0038 66a8 5410  ...@.@.."6.8f.T.
	0x0030:  1000 bd73 0000                           ...s..
 00:00:14.442468 56:34:12:00:54:09 > 56:34:12:00:54:08, ethertype IPv4 (0x0800), length 54: (tos 0x0, ttl 64, id 15, offset 0, flags [none], proto TCP (6), length 40)
    10.0.1.9.8000 > 10.0.1.8.8000: Flags [F.], cksum 0xbd72 (correct), seq 6001, ack 1, win 4096, length 0
	0x0000:  5634 1200 5408 5634 1200 5409 0800 4500  V4..T.V4..T...E.
	0x0010:  0028 000f 0000 4006 64b1 0a00 0109 0a00  .(....@.d.......
	0x0020:  0108 1f40 1f40 0038 66a8 00ba 2236 5411  ...@.@.8f..."6T.
	0x0030:  1000 bd72 0000                           ...r..
 00:00:14.443331 56:34:12:00:54:08 > 56:34:12:00:54:09, ethertype IPv4 (0x0800), length 54: (tos 0x0, ttl 64, id 10, offset 0, flags [none], proto TCP (6), length 40)
    10.0.1.8.8000 > 10.0.1.9.8000: Flags [.], cksum 0xbd72 (correct), seq 1, ack 6002, win 4096, length 0
	0x0000:  5634 1200 5409 5634 1200 5408 0800 4500  V4..T.V4..T...E.
	0x0010:  0028 000a 0000 4006 64b6 0a00 0108 0a00  .(....@.d.......
	0x0020:  0109 1f40 1f40 00ba 2236 0038 66a9 5410  ...@.@.."6.8f.T.
	0x0030:  1000 bd72 0000                           ...r..
 00:00:14.443582 56:34:12:00:54:08 > 56:34:12:00:54:09, ethertype IPv4 (0x0800), length 54: (tos 0x0, ttl 64, id 11, offset 0, flags [none], proto TCP (6), length 40)
    10.0.1.8.8000 > 10.0.1.9.8000: Flags [F.], cksum 0xbd71 (correct), seq 1, ack 6002, win 4096, length 0
	0x0000:  5634 1200 5409 5634 1200 5408 0800 4500  V4..T.V4..T...E.
	0x0010:  0028 000b 0000 4006 64b5 0a00 0108 0a00  .(....@.d.......
	0x0020:  0109 1f40 1f40 00ba 2236 0038 66a9 5411  ...@.@.."6.8f.T.
	0x0030:  1000 bd71 0000                           ...q..
 00:00:14.443751 56:34:12:00:54:09 > 56:34:12:00:54:08, ethertype IPv4 (0x0800), length 54: (tos 0x0, ttl 64, id 16, offset 0, flags [none], proto TCP (6), length 40)
    10.0.1.9.8000 > 10.0.1.8.8000: Flags [.], cksum 0xbd71 (correct), seq 6002, ack 2, win 4096, length 0
	0x0000:  5634 1200 5408 5634 1200 5409 0800 4500  V4..T.V4..T...E.
	0x0010:  0028 0010 0000 4006 64b0 0a00 0109 0a00  .(....@.d.......
	0x0020:  0108 1f40 1f40 0038 66a9 00ba 2237 5410  ...@.@.8f..."7T.
	0x0030:  1000 bd71 0000                           ...q..
